:10000000029DB502A45A41085F000002B276758FC6
:1000100001222202B27C02B25A222202B282900350
:100020001FE004F0E0D39402400FE4F090031EE0E0
:1000300004F0E0947E4002E4F0222202AA9CD25B0B
:1000400022220002AA59AF087E0012B1DA9008738A
:10005000EFF0E50875F004A4FF90087CE5F0F0A34C
:10006000EFF030380302056690087CE0FEA3E0FF65
:10007000E42FF58274C63EF583E493900878F0741B
:10008000012FF58274C63EF583E493900879F090D1
:10009000087CE0FEA3E0FF2402F58274C63EF583EF
:1000A000E49390087AF074032FF58274C63EF583CA
:1000B000E49390087BF090093EE0FF640160030246
:1000C00003A6900873E0FE64167016900878E0703E
:1000D00010A3E0700CA3E0B41E07A3E070030203BA
:1000E000CAEE64177016900878E07010A3E0700CE8
:1000F000A3E0B41F07A3E070030203EB900873E0D2
:1001000064187016900878E07010A3E0700CA3E0FB
:10011000B42007A3E0700302040F900873E0FE64AC
:10012000197016900878E07010A3E0700CA3E0B48A
:100130002107A3E07003020434EE641A70169008DD
:1001400078E07010A3E0700CA3E0B42207A3E07085
:1001500003020455900873E0641B7016900878E061
:100160007010A3E0700CA3E0B42307A3E0700302B7
:100170000479900873E0FE641C7016900878E070B3
:1001800010A3E0700CA3E0B42407A3E07003020402
:100190009EEE641D7016900878E07010A3E0700C5D
:1001A000A3E0B42507A3E070030204BF900873E046
:1001B000641E7016900878E07010A3E0700CA3E045
:1001C000B42607A3E070030204E3900873E0FE6422
:1001D0001F7016900878E07010A3E0700CA3E0B4D4
:1001E0002707A3E07003020508EE6420701690084C
:1001F00078E07010A3E0700CA3E0B42D07A3E070CA
:1002000003020529900873E064217016900878E0D5
:100210007010A3E0700CA3E0B42E07A3E0700302FB
:10022000055D900873E0FE64307022900878E070FD
:100230001C90087AE0B41C15900879E0700F9008C3
:100240007BE0700990087A7446F0020870EE643121
:100250007022900878E0701C90087AE0B41815902D
:100260000879E0700F90087BE0700990087A744775
:10027000F0020870900873E064327022900878E011
:10028000701C90087AE0B40C15900879E0700F901B
:10029000087BE0700990087A7448F00208709008B2
:1002A00073E0FE64457022900878E0701C90087A34
:1002B000E0B40B15900879E0700F90087BE07009AE
:1002C00090087A7449F0020870EE64467022900833
:1002D00078E0701C90087AE0B40D15900879E07011
:1002E0000F90087BE0700990087A744AF002087059
:1002F000900873E064477022900878E0701C9008C2
:100300007AE0B40E15900879E0700F90087BE070E9
:100310000990087A744BF0020870900873E0FE644C
:100320005A7022900878E0701C90087AE0B4111599
:10033000900879E0700F90087BE0700990087A745B
:100340004CF0020870EE645B7022900878E0701C3C
:1003500090087AE0B41015900879E0700F90087B4F
:10036000E0700990087A744DF0020870900873E00C
:10037000645C6003020870900878E0600302087013
:1003800090087AE064366003020870900879E060B3
:100390000302087090087BE0600302087090087AFE
:1003A000744EF0020870EF64026003020870900857
:1003B00073E0FF6416701C900878E07016A3E0707C
:1003C00012A3E0B41E0DA3E0700990087A743AF00D
:1003D000020870EF6417701C900878E07016A3E0B4
:1003E0007012A3E0B41F0DA3E0700990087A743B6B
:1003F000F0020870900873E06418701C900878E0B0
:100400007016A3E07012A3E0B4200DA3E070099071
:10041000087A743CF0020870900873E0FF64197069
:100420001C900878E07016A3E07012A3E0B4210DD0
:10043000A3E0700990087A743DF0020870EF641A26
:10044000701C900878E07016A3E07012A3E0B4224C
:100450000DA3E0700990087A743EF00208709008CD
:1004600073E0641B701C900878E07016A3E07012B3
:10047000A3E0B4230DA3E0700990087A743FF00262
:100480000870900873E0FF641C701C900878E0709E
:1004900016A3E07012A3E0B4240DA3E07009900845
:1004A0007A7440F0020870EF641D701C900878E0C8
:1004B0007016A3E07012A3E0B4250DA3E0700990BC
:1004C000087A7441F0020870900873E0641E701C92
:1004D000900878E07016A3E07012A3E0B4260DA394
:1004E000E0700990087A7442F0020870900873E096
:1004F000FF641F701C900878E07016A3E07012A3D0
:10050000E0B4270DA3E0700990087A7443F0020864
:1005100070EF6420701C900878E07016A3E07012F1
:10052000A3E0B42D0DA3E0700990087A7444F002A2
:100530000870900873E064216003020870900878E6
:10054000E06003020870A3E06003020870A3E064A7
:100550002E6003020870A3E0600302087090087A1E
:100560007445F002087090093EE0FF7007E50890BE
:1005700075B08017EFB40107E50890762E800C90D7
:10058000093EE0B4020AE5089076AC9390087AF050
:1005900090087AE0FFD39400500302082290087874
:1005A0007480F0E490087BF0900879F0EF12757891
:1005B00006B68006AE81069B8206B28306BA840622
:1005C000C28506BE86068887064588066689062B8C
:1005D0008A06388C0608A0070BC107A4C207CCC343
:1005E00007E1C407F5C50809C606CAC706F1C8066B
:1005F000FEC90761CA0777CB078DCC0738CD06D86F
:10060000CE0729CF00000870306503020870305A09
:1006100003020870050DE50DD394FA50030208702B
:10062000E4F50D12A084D23E0208702037057F0A3F
:100630000206C47F130206C42037057F0C0206C4DD
:100640007F120206C42037047F088078E490087B7C
:10065000F090087AF0900879F004F0783746F6A325
:100660007452F00208702037047F098057E4900824
:100670007BF090087AF0900879F07408F0783746AB
:10068000F6A37407F00208702037047F07803578DE
:1006900078E620E1030208700207EA2037047F02AF
:1006A00080227879E620E1030208700207D57F01F5
:1006B00080127F03800EE4FF800A7F0480067F069D
:1006C00080027F0512AC410208707874E620E503D1
:1006D000020870B2400208707873E620E503020851
:1006E0007090093EE004F0E0D394024047E4F080CB
:1006F000437874E620E303020870C23780367875C9
:10070000E620E303020870D23780297880E620E2F1
:100710000302087090092DE004F0E0D39415500313
:100720000207C67401F00207C67880E620E30302E0
:100730000870B242D23D80237881E620E0030208AF
:100740007020280302087020650AD26512A524D201
:100750003D020870C265C23D12789712003E020841
:10076000707874E620E10302087090092D7413F08C
:100770009009457401802A7875E620E1030208702B
:1007800090092D7413F0900945740280147876E670
:1007900020E10302087090092D7413F0900945744C
:1007A00003F08022787CE620E403020870302803FE
:1007B000020870E51670037516070516E516D39442
:1007C000084003751601128CBB020870787FE62082
:1007D000E20302087090094274AAF012B00A0208FB
:1007E00070787EE620E20302087090094274AAF055
:1007F00012B029807B787EE630E375E5156002153E
:1008000015E515706BD23D8067787DE630E361E5D4
:1008100015C3940450020515E51564047052D23DC9
:10082000804E90087CE0FEA3E0FFE42FF58274C6C2
:100830003EF583E493900878F074012FF58274C636
:100840003EF583E493900879F090087CE0FEA3E005
:10085000FF2402F58274C63EF583E49390087AF093
:1008600074032FF58274C63EF583E49390087BF001
:10087000304246303803020916900873E0FFB47125
:100880000890087A7450020912EFB4720790087A3F
:100890007451807EEFB4730790087A744F8073EFC1
:1008A000645E7072785BE65410FF784EE654104F29
:1008B000706490087A7452805930385A900873E006
:1008C000FDB4711290087A7450F0E4A3F0900879A6
:1008D000E054BFF08040EDB4720790087A74518004
:1008E00031900873E0FDB4731290087A744FF0E40D
:1008F000A3F0900879E054EFF0801BEDB45E177818
:100900005BE65410FF784EE654104F700990087A59
:100910007452F0E4A3F0900878E0FC6480702390B7
:10092000087AE0FF30E703020BE3900879E07837BC
:1009300046F612AE36E50E6003020BE3A3E0FF02BB
:10094000B062EC6003020ACF303764900873E0FFB6
:10095000646A701B900879E0B40814A3E07010A3D7
:10096000E0700C900878E07006A37404F08040EF0B
:10097000646B701B900879E0B40414A3E07010A3BA
:10098000E0700C900878E07006A37408F080209066
:100990000873E0B47019900879E0B44012A3E070D5
:1009A0000EA3E0700A900878E07004A37480F090C1
:1009B0000879E0783746F6304004E65477F630425E
:1009C000092038067837E654AFF690087AE0FF60E1
:1009D0000C12AE36E50E7005E0FF12B06290087B97
:1009E000E0FF600C12AE36E50E7005E0FF12B0625B
:1009F000E50E64AA6003020BE330047290087AE00B
:100A0000603564B06031E0FD24FCFFE434FFFEEFAC
:100A10007803CEC313CE13D8F9900871F0ED24FCFF
:100A20005407FFA3F0900871E02464F8C000F912A5
:100A3000B1E8E74FD000F690087BE07003020BE3CB
:100A400064B07003020BE3E0FD24FCFFE434FFFE1E
:100A5000EF7803CEC313CE13D8F9900871F0ED24CC
:100A6000FC5407FFA3F0900871E0246480549008C0
:100A70007AE0FF602664B06022E0131313541F90E5
:100A80000871F0EF5407FFA3F0900871E02465F8B7
:100A9000C000F912B1E8E74FD000F690087BE0FF04
:100AA0007003020BE364B07003020BE3E013131353
:100AB000541F900871F0EF5407FFA3F0900871E005
:100AC0002465F8C000F912B1E8E74FD000F6229093
:100AD0000878E0FFB4010C90087AE0788AF6A3E089
:100AE00008F622EF64026003020BE390087AE0B498
:100AF000046690087412753B00000001900874E0D1
:100B0000FCA3E0FDA3E0FEA3E0FF900879E0F9F884
:100B100012751C90087412752F900827E0FCA3E052
:100B2000FDA3E0FEA3E0FF900874E0F8A3E0F9A3C2
:100B3000E0FAA3E0FBEF4BFFEE4AFEED49FDEC4887
:100B4000FC90082712752F900879E02450F582E474
:100B50003408F5837401F02290087AE064016003A0
:100B6000020BE390087412753B00000001900874BA
:100B7000E0FCA3E0FDA3E0FEA3E0FF900879E0F92C
:100B8000F812751C90087412752FAF0812B20E740B
:100B9000732FF8E6FEC006AF0812B1CCD0E05F605C
:100BA00042900827E0FCA3E0FDA3E0FEA3E0FF9055
:100BB0000874E0F8A3E0F9A3E0FAA3E0FBEF4BFF31
:100BC000EE4AFEED49FDEC48FC90082712752F9087
:100BD000087BE0FF900879E02450F582E43408F5C2
:100BE00083EFF02290089AEFF0300406900934E584
:100BF0001FF07F0190089AE0FE643F707A900934FC
:100C0000E030E15CEEFD7C00129597EF24FCFFE400
:100C10003403FE90089AE0FD75F002A42411F582D9
:100C2000E5F03401F583EEF0A3EFF07F0212959723
:100C3000EF24FCFFE4340312957CEF24FCFFE43442
:100C400003FE90089AE075F002A42415F582E5F001
:100C50003400F583EEF0A3EFF0D248E4FF02105C1D
:100C600020480302105CC24830310302103B2028A8
:100C70000302105C02104A90089AE0FE646A707ADF
:100C800030405EEEFD7C007F01129597EF24FCFF63
:100C9000E43403FE90089AE0FD75F002A42411F5F7
:100CA00082E5F03401F583EEF0A3EFF07F021295B8
:100CB00097EF24FCFFE4340312957CEF24FCFFE45F
:100CC0003403FE90089AE075F002A42415F582E53D
:100CD000F03400F583EEF0A3EFF0D249E4FF021008
:100CE0005C304911C24930310302103B2028030215
:100CF000105C02104A7F0102105C90089AE0FE64CA
:100D00002B7053300139900926E064AA60311295A6
:100D100037EFFD900926E075F004A42DFFEC35F0C7
:100D2000FE90089AE075F002A42415F582E5F034EF
:100D300000F583EEF0A3EFF0D243E4FF02105C2055
:100D4000430302105CC24330310302103B202803EE
:100D500002105C02104A90089AE0FE642C70533036
:100D60000239900926E064AA6031129537EFFD90B0
:100D70000926E075F004A42DFFEC35F0FE90089AEA
:100D8000E075F002A42415F582E5F03400F583EE59
:100D9000F0A3EFF0D244E4FF02105C204403021001
:100DA0005CC24430310302103B20280302105C0275
:100DB000104A90089AE0FE642D7053300339900970
:100DC00026E064AA6031129537EFFD900926E075A0
:100DD000F004A42DFFEC35F0FE90089AE075F002C7
:100DE000A42415F582E5F03400F583EEF0A3EFF0CE
:100DF000D245E4FF02105C20450302105CC245307E
:100E0000310302103B20280302105C02104A9008B4
:100E10009AE0FE64346003020EDD200003020EBC83
:100E2000900926E0FD64AA7003020EBCED64AB706D
:100E300003020EBCEEFD7C007F02129597EFFD9041
:100E40000926E075F004A42DFFEC35F0FE90089A19
:100E5000E0FD75F002A4240DF582E5F03402F5837F
:100E6000EEF0A3EFF07F01129597EFFD900926E0D9
:100E700075F004A42DFFEC35F0FE90089AE0FD75A6
:100E8000F002A42411F582E5F0340112958EEFFDF5
:100E9000900926E075F004A42DFFEC35F0FE9008D3
:100EA0009AE075F002A42415F582E5F03400F5838C
:100EB000EEF0A3EFF0D246E4FF02105C20460302FE
:100EC000105CC24630310B90089A1236CBE4FF0218
:100ED000105C30280302104A7F0102105C90089ACF
:100EE000E0FE646E6003020F95A22C7221400302A3
:100EF0000F7AEEFD7C007F01129597EFFD90091EA1
:100F0000E075F004A42DFFEC35F0FE90089AE0FDAA
:100F100075F002A42411F582E5F0340112958EEFEC
:100F2000FD90091EE075F004A42DFFEC35F0FE9055
:100F3000089AE0FD75F002A42415F582E5F034006E
:100F4000F583EEF0A3EFF07F02129597EFFD900985
:100F50001EE075F004A42DFFEC35F0FE90089AE039
:100F600075F002A4240DF582E5F03402F583EEF06D
:100F7000A3EFF0E4FFD24A02105C304A13C24A30B9
:100F8000310302103B30280302104A7F0102105C3B
:100F90007F0102105C90089AE0FE64766003021004
:100FA0005C90092FE064AA7003021033EEFD7C0010
:100FB0007F01129597EFFD90092FE075F004A42DA5
:100FC000FFEC35F0FE90089AE0FD75F002A42411C4
:100FD000F582E5F0340112958EEFFD90092FE07552
:100FE000F004A42DFFEC35F0FE90089AE0FD75F0BA
:100FF00002A42415F582E5F03400F583EEF0A3EFAA
:10100000F07F02129597EFFD90092FE075F004A490
:101010002DFFEC35F0FE90089AE075F002A4240D47
:10102000F582E5F03402F583EEF0A3EFF0E4FFD2B1
:10103000478029304724C24730310C90089AE0FF9E
:101040001257B4E4FF801530280C90089AE0FF1284
:101050007108E4FF80067F0180027F0122205B038C
:101060000210EEC25B7F6412A9DD7D5A7F007EC84C
:1010700012A74290092DE0FD7F0112A74290094579
:10108000E0FD7F0212A742AD167F0312A74290092E
:101090003FE0FD7F0412A742900920E0FD7F05128A
:1010A000A742AD1A7F0612A742AD197F0712A742C9
:1010B000AD187F0812A742AD177F0912A74230373B
:1010C000067D017F0A8006E4FD7F0A7EC812A742E2
:1010D00090093EE0FD7F0B7EC812A7423042067D9C
:1010E000017F0C8006E4FD7F0C7EC812A74222001F
:1010F00000000000000000000000000000000000F0
:101100000000000000000000E4900893F0900893B5
:10111000E0FFC3947E502C741A2FF582E43407F557
:1011200083E4F0749C2FF582E43406F583E4F074D4
:101130001E2FF582E43406F583E4F0900893E00472
:10114000F080CAA2107233721172137212721450AC
:101150006BE516B4010A751AFFE4F518F519805C01
:10116000E516B4020B751AFF7519FFE4F518804CEB
:10117000E516B4030A7519FFE4F51AF518803DE584
:1011800016B4040A7518FFE4F51AF519802EE51651
:10119000B4050B7518FF7519FFE4F51A801EE516E6
:1011A000B4060B7518FF751AFFE4F519800EE516E5
:1011B000B407097518FF751AFF7519FF203303026C
:1011C0001648E4900893F0900893E0FFC39406401B
:1011D0000302264E75F015EFA42432F582E5F034B3
:1011E00006F583E4F075F015EFA424B0F582E5F080
:1011F0003406F5837454F075F015EFA4242EF582AF
:10120000E5F03407F58374A8F075F015EFA42431E8
:10121000F582E5F03406F583740CF075F015EFA453
:1012200024AFF582E5F03406F5837460F075F015AF
:10123000EFA4242DF582E5F03407F58374B4F0753E
:10124000F015EFA42430F582E5F03406F583741828
:10125000F075F015EFA424AEF582E5F03406F583C1
:10126000746CF075F015EFA4242CF582E5F03407CA
:10127000F58374C0F075F015EFA4242FF582E5F026
:101280003406F5837424F075F015EFA424ADF582CF
:10129000E5F03406F5837478F075F015EFA4242B8F
:1012A000F582E5F03407F58374CCF075F015EFA402
:1012B000242EF582E5F03406F5837430F075F015D0
:1012C000EFA424ACF582E5F03406F5837484F07560
:1012D000F015EFA4242AF582E5F03407F58374D8DD
:1012E000F075F015EFA4242DF582E5F03406F583B2
:1012F000743CF075F015EFA424ABF582E5F03406EC
:10130000F5837490F075F015EFA42429F582E5F0CB
:101310003407F58374E4F075F015EFA4242CF582FE
:10132000E5F03406F5837448F075F015EFA424AAAF
:10133000F582E5F03406F583749CF075F015EFA4A2
:101340002428F582E5F03407F58374F0F075F01584
:10135000EFA4242BF582E5F03406F5837454F07580
:10136000F015EFA424A9F582E5F03406F58374A8FE
:10137000F075F015EFA42427F582E5F03407F58326
:10138000E4F075F015EFA4242AF582E5F03406F5B3
:10139000837460F075F015EFA424A8F582E5F034AD
:1013A00006F58374B4F075F015EFA42426F582E5F4
:1013B000F03407F583740CF075F015EFA42429F5CB
:1013C00082E5F03406F583746CF075F015EFA42413
:1013D000A7F582E5F03406F58374C0F075F015EFDB
:1013E000A42425F582E5F03407F5837418F075F030
:1013F00015EFA42428F582E5F03406F5837478F01F
:1014000075F015EFA424A6F582E5F03406F5837493
:10141000CCF075F015EFA42424F582E5F03407F53F
:10142000837424F075F015EFA42427F582E5F034D9
:1014300006F5837484F075F015EFA424A5F582E514
:10144000F03406F58374D8F075F015EFA42423F575
:1014500082E5F03407F5837430F075F015EFA424BD
:1014600026F582E5F03406F5837490F075F015EFFB
:10147000A424A4F582E5F03406F58374E4F075F055
:1014800015EFA42422F582E5F03407F583743CF0CF
:1014900075F015EFA42425F582E5F03406F5837484
:1014A0009CF075F015EFA424A3F582E5F03406F561
:1014B0008374F0F075F015EFA42421F582E5F03483
:1014C00007F5837448F075F015EFA42424F582E540
:1014D000F03406F58374A8F075F015EFA424A2F596
:1014E00082E5F03406F583E4F075F015EFA42420CE
:1014F000F582E5F03407F5837454F075F015EFA428
:101500002423F582E5F03406F58374B4F075F01504
:10151000EFA424A1F582E5F03406F583740CF07590
:10152000F015EFA4241FF582E5F03407F58374600D
:10153000F075F015EFA42422F582E5F03406F5836A
:1015400074C0F075F015EFA424A0F582E5F0340620
:10155000F5837418F075F015EFA4241EF582E5F0FC
:101560003407F583746CF075F015EFA42421F5822F
:10157000E5F03406F58374CCF075F015EFA4249FE4
:10158000F582E5F03406F5837424F075F015EFA4C8
:10159000241DF582E5F03407F5837478F075F015B5
:1015A000EFA42420F582E5F03406F58374D8F075B5
:1015B000F015EFA4249EF582E5F03406F58374302F
:1015C000F075F015EFA4241CF582E5F03407F583DF
:1015D0007484F075F015EFA4241FF582E5F034064D
:1015E000F58374E4F075F015EFA4249DF582E5F021
:1015F0003406F583743CF075F015EFA4241BF582D6
:10160000E5F03407F5837490F075F015EFA4241E0F
:10161000F582E5F03406F58374F0F075F015EFA46B
:10162000249CF582E5F03406F5837448F075F015D6
:10163000EFA4241AF582E5F03407F583749CF0904A
:101640000893E004F00211C7201003021A6AE49024
:101650000893F0900893E0FFC3940A503BE0FE909B
:10166000673893241EF582E43406F583E4F0EE90A7
:10167000673893249CF582E43406F5837454F0EFC4
:1016800090673893241AF582E43407F58374A8F040
:10169000900893E004F080BBE4900893F0900893E6
:1016A000E0FFC39409503CE0FE90674293241EF58E
:1016B00082E43406F5837411F0EE90674293249C23
:1016C000F582E43406F5837465F0EF906742932465
:1016D0001AF582E43407F58374B9F0900893E004B6
:1016E000F080BAE4900893F0900893E0FFC3940967
:1016F000503CE0FE90674B93241EF582E43406F5DF
:10170000837422F0EE90674B93249CF582E43406B8
:10171000F5837433F0EF90674B93241AF582E43429
:1017200007F58374CAF0900893E004F080BAE4905F
:101730000893F0900893E0FFC39407503CE0FE90BC
:10174000675493241EF582E43406F5837433F0EE77
:1017500090675493249CF582E43406F5837487F0F3
:10176000EF90675493241AF582E43407F58374DB11
:10177000F0900893E004F080BAE4900893F09008A9
:1017800093E0FFC39403503CE0FE90675B93241EFC
:10179000F582E43406F5837444F0EE90675B93249D
:1017A0009CF582E43406F5837498F0EF90675B93C0
:1017B000241AF582E43407F58374ECF0900893E082
:1017C00004F080BAE4900893F0900893E0FFC3948B
:1017D00003503CE0FE90675E93241EF582E43406DD
:1017E000F5837455F0EE90675E93249CF582E434A3
:1017F00006F58374A9F0EF90675E93241AF582E4EE
:101800003407F583740DF0900893E004F080BAE497
:10181000900893F0900893E0FFC39404503CE0FEDE
:1018200090676193241EF582E43406F5837466F0B4
:10183000EE90676193249CF582E43406F58374BAD4
:10184000F0EF90676193241AF582E43407F583740E
:101850001EF0900893E004F080BAE4900893F090B2
:101860000893E0FFC39407503CE0FE906765932423
:101870001EF582E43406F5837477F0EE9067659385
:10188000249CF582E43406F58374CBF0EF90676511
:1018900093241AF582E43407F583742FF0900893AB
:1018A000E004F080BAE4900893F0900893E0FFC35E
:1018B0009404503CE0FE90676C93241EF582E4345F
:1018C00006F5837488F0EE90676C93249CF582E4AF
:1018D0003406F58374DCF0EF90676C93241AF5827C
:1018E000E43407F5837440F0900893E004F080BA84
:1018F000E4900893F0900893E0FFC3940D503CE00F
:10190000FE90677093241EF582E43406F583749983
:10191000F0EE90677093249CF582E43406F58374AE
:10192000EDF0EF90677093241AF582E43407F583A5
:101930007451F0900893E004F080BAE4900893F0BA
:10194000900893E0FFC3940B503CE0FE90677D93BA
:10195000241EF582E43406F58374AAF0EE90677DC8
:1019600093249CF582E43406F583740EF0EF9067BF
:101970007D93241AF582E43407F5837462F09008AD
:1019800093E004F080BAE4900893F0900893E0FFAD
:10199000C3940B503CE0FE90678893241EF582E4CC
:1019A0003406F58374BBF0EE90678893249CF5822F
:1019B000E43406F583741FF0EF90678893241AF5DA
:1019C00082E43407F5837473F0900893E004F080A8
:1019D000BAE4900893F0900893E0FFC3940C503C55
:1019E000E0FE90679393241EF582E43406F5837439
:1019F000CCF0EE90679393249CF582E43406F58353
:101A00007430F0EF90679393241AF582E43407F56D
:101A1000837484F0900893E004F080BAE490089313
:101A2000F0900893E0FFC39418400302264EE0FEB6
:101A300090679F93241EF582E43406F58374DDF0ED
:101A4000EE90679F93249CF582E43406F5837441FD
:101A5000F0EF90679F93241AF582E43407F58374BE
:101A600095F0900893E004F080B7201103021B74F6
:101A7000E4900893F0900893E0FFC39415400302AC
:101A8000264E74872FF582E43406F583E4F07472F1
:101A90002FF582E43406F583740EF0745D2FF58221
:101AA000E43406F583741CF074482FF582E43406A0
:101AB000F5837420F074332FF582E43406F58374D3
:101AC0002EF0741E2FF582E43406F583743CF07416
:101AD000052FF582E43407F583744AF074F02FF58E
:101AE00082E43406F5837458F074DB2FF582E43415
:101AF00006F5837466F074C62FF582E43406F58328
:101B00007474F074B12FF582E43406F5837482F0B6
:101B1000749C2FF582E43406F5837490F074832F5F
:101B2000F582E43407F583749EF0746E2FF582E439
:101B30003407F58374ACF074592FF582E43407F55B
:101B40008374BAF074442FF582E43407F58374C8C3
:101B5000F0742F2FF582E43407F58374D6F0741AED
:101B60002FF582E43407F58374E4F0900893E004E1
:101B7000F0021A75201303021CF3E4900893F0900E
:101B80000893E0FFC3941C503CE0FE90681E932431
:101B90001AF582E43407F5837448F0EE90681E93DA
:101BA000249CF582E43406F583749CF0EF90681E63
:101BB00093241EF582E43406F58374F0F0900893C4
:101BC000E004F080BAE4900893F0900893E0FFC33B
:101BD0009424503CE0FE9067FA93241AF582E43492
:101BE00007F5837460F0EE9067FA93249CF582E425
:101BF0003406F58374C0F0EF9067FA93241EF582E3
:101C0000E43406F583740CF0900893E004F080BA95
:101C1000E4900893F0900893E0FFC39420503CE0D8
:101C2000FE9067DA93241AF582E43407F58374781A
:101C3000F0EE9067DA93249CF582E43406F5837421
:101C4000D8F0EF9067DA93241EF582E43406F5832A
:101C50007424F0900893E004F080BAE4900893F0C4
:101C6000900893E0FFC3941C503CE0FE9067BE9345
:101C7000241AF582E43407F5837490F0EE9067BE81
:101C800093249CF582E43406F58374E4F0EF9067C6
:101C9000BE93241EF582E43406F583743CF090086C
:101CA00093E004F080BAE4900893F0900893E0FF8A
:101CB000C39407400302264EE0FE9067B793241AB0
:101CC000F582E43407F58374A8F0EE9067B79324A7
:101CD0009CF582E43406F583E4F0EF9067B7932433
:101CE0001EF582E43406F5837454F0900893E00402
:101CF000F080B82012030225EBE4900893F09008DE
:101D000093E0FFC39406400302264EEF75F01520C2
:101D1000E00302217AA42432F582E5F03406F5834B
:101D2000E4F075F015EFA424B0F582E5F03406F583
:101D3000837454F075F015EFA4242EF582E5F03489
:101D400007F58374A8F075F015EFA42431F582E54A
:101D5000F03406F583740CF075F015EFA424AFF59C
:101D600082E5F03406F5837460F075F015EFA42475
:101D70002DF582E5F03407F58374B4F075F015EFB6
:101D8000A42430F582E5F03406F5837418F075F07C
:101D900015EFA424AEF582E5F03406F583746CF0FB
:101DA00075F015EFA4242CF582E5F03407F5837463
:101DB000C0F075F015EFA4242FF582E5F03406F598
:101DC000837424F075F015EFA424ADF582E5F034AA
:101DD00006F5837478F075F015EFA4242BF582E5F1
:101DE000F03407F58374CCF075F015EFA4242EF5CC
:101DF00082E5F03406F5837430F075F015EFA42415
:101E0000ACF582E5F03406F5837484F075F015EFD7
:101E1000A4242AF582E5F03407F58374D8F075F030
:101E200015EFA4242DF582E5F03406F583743CF01B
:101E300075F015EFA424ABF582E5F03406F5837454
:101E400090F075F015EFA42429F582E5F03407F53C
:101E50008374E4F075F015EFA4242CF582E5F034DA
:101E600006F5837448F075F015EFA424AAF582E511
:101E7000F03406F583749CF075F015EFA42428F572
:101E800082E5F03407F58374F0F075F015EFA424C3
:101E90002BF582E5F03406F5837454F075F015EFF8
:101EA000A424A9F582E5F03406F58374A8F075F052
:101EB00015EFA42427F582E5F03407F583E4F075E7
:101EC000F015EFA4242AF582E5F03406F58374605A
:101ED000F075F015EFA424A8F582E5F03406F5833B
:101EE00074B4F075F015EFA42426F582E5F03407FC
:101EF000F583740CF075F015EFA42429F582E5F054
:101F00003406F583746CF075F015EFA424A7F58200
:101F1000E5F03406F58374C0F075F015EFA42425C0
:101F2000F582E5F03407F5837418F075F015EFA429
:101F30002428F582E5F03406F5837478F075F01501
:101F4000EFA424A6F582E5F03406F58374CCF07591
:101F5000F015EFA42424F582E5F03407F58374240A
:101F6000F075F015EFA42427F582E5F03406F5832B
:101F70007484F075F015EFA424A5F582E5F034061D
:101F8000F58374D8F075F015EFA42423F582E5F0FD
:101F90003407F5837430F075F015EFA42426F5822C
:101FA000E5F03406F5837490F075F015EFA424A4E1
:101FB000F582E5F03406F58374E4F075F015EFA4CE
:101FC0002422F582E5F03407F583743CF075F015B2
:101FD000EFA42425F582E5F03406F583749CF075B2
:101FE000F015EFA424A3F582E5F03406F58374F030
:101FF000F075F015EFA42421F582E5F03407F583A0
:102000007448F075F015EFA42424F582E5F0340649
:10201000F58374A8F075F015EFA424A2F582E5F01D
:102020003406F583E4F075F015EFA42420F582E57D
:10203000F03407F5837454F075F015EFA42423F5FC
:1020400082E5F03406F58374B4F075F015EFA4243E
:10205000A1F582E5F03406F583740CF075F015EF08
:10206000A4241FF582E5F03407F5837460F075F061
:1020700015EFA42422F582E5F03406F58374C0F050
:1020800075F015EFA424A0F582E5F03406F583740D
:1020900018F075F015EFA4241EF582E5F03407F56D
:1020A00083746CF075F015EFA42421F582E5F0340B
:1020B00006F58374CCF075F015EFA4249FF582E546
:1020C000F03406F5837424F075F015EFA4241DF5A3
:1020D00082E5F03407F5837478F075F015EFA424E9
:1020E00020F582E5F03406F58374D8F075F015EF2D
:1020F000A4249EF582E5F03406F5837430F075F083
:1021000015EFA4241CF582E5F03407F5837484F000
:1021100075F015EFA4241FF582E5F03406F58374FD
:10212000E4F075F015EFA4249DF582E5F03406F592
:1021300083743CF075F015EFA4241BF582E5F034B0
:1021400007F5837490F075F015EFA4241EF582E571
:10215000F03406F58374F0F075F015EFA4249CF5C7
:1021600082E5F03406F5837448F075F015EFA42489
:102170001AF582E5F034070225DDEFA4241EF5826E
:10218000E5F03406F583E4F075F015EFA4249CF532
:1021900082E5F03406F5837454F075F015EFA4244D
:1021A0001AF582E5F03407F58374A8F075F015EFA1
:1021B000A4241FF582E5F03406F583740CF075F065
:1021C00015EFA4249DF582E5F03406F5837460F0E4
:1021D00075F015EFA4241BF582E5F03407F5837440
:1021E000B4F075F015EFA42420F582E5F03406F57F
:1021F000837418F075F015EFA4249EF582E5F03491
:1022000006F583746CF075F015EFA4241CF582E5D7
:10221000F03407F58374C0F075F015EFA42421F5B0
:1022200082E5F03406F5837424F075F015EFA424EC
:102230009FF582E5F03406F5837478F075F015EFBC
:10224000A4241DF582E5F03407F58374CCF075F015
:1022500015EFA42422F582E5F03406F5837430F0FE
:1022600075F015EFA424A0F582E5F03406F583742B
:1022700084F075F015EFA4241EF582E5F03407F51F
:102280008374D8F075F015EFA42423F582E5F034BB
:1022900006F583743CF075F015EFA424A1F582E5F2
:1022A000F03406F5837490F075F015EFA4241FF553
:1022B00082E5F03407F58374E4F075F015EFA4249B
:1022C00024F582E5F03406F5837448F075F015EFD7
:1022D000A424A2F582E5F03406F583749CF075F031
:1022E00015EFA42420F582E5F03407F58374F0F0AF
:1022F00075F015EFA42425F582E5F03406F5837416
:1023000054F075F015EFA424A3F582E5F03406F53A
:102310008374A8F075F015EFA42421F582E5F0345C
:1023200007F583E4F075F015EFA42426F582E5F0B7
:102330003406F5837460F075F015EFA424A4F582DB
:10234000E5F03406F58374B4F075F015EFA424229B
:10235000F582E5F03407F583740CF075F015EFA401
:102360002427F582E5F03406F583746CF075F015DA
:10237000EFA424A5F582E5F03406F58374C0F0756A
:10238000F015EFA42423F582E5F03407F5837418E3
:10239000F075F015EFA42428F582E5F03406F583F6
:1023A0007478F075F015EFA424A6F582E5F03406F4
:1023B000F58374CCF075F015EFA42424F582E5F0D4
:1023C0003407F5837424F075F015EFA42429F58201
:1023D000E5F03406F5837484F075F015EFA424A7B6
:1023E000F582E5F03406F58374D8F075F015EFA4A6
:1023F0002425F582E5F03407F5837430F075F01587
:10240000EFA4242AF582E5F03406F5837490F07584
:10241000F015EFA424A8F582E5F03406F58374E402
:10242000F075F015EFA42426F582E5F03407F58366
:10243000743CF075F015EFA4242BF582E5F034061A
:10244000F583749CF075F015EFA424A9F582E5F0EE
:102450003406F58374F0F075F015EFA42427F582A7
:10246000E5F03407F5837448F075F015EFA4242CDB
:10247000F582E5F03406F58374A8F075F015EFA445
:1024800024AAF582E5F03406F583E4F075F015EF43
:10249000A42428F582E5F03407F5837454F075F030
:1024A00015EFA4242DF582E5F03406F58374B4F01D
:1024B00075F015EFA424ABF582E5F03406F58374CE
:1024C0000CF075F015EFA42429F582E5F03407F53A
:1024D000837460F075F015EFA4242EF582E5F034D6
:1024E00006F58374C0F075F015EFA424ACF582E511
:1024F000F03406F5837418F075F015EFA4242AF56E
:1025000082E5F03407F583746CF075F015EFA424C0
:102510002FF582E5F03406F58374CCF075F015EFF5
:10252000A424ADF582E5F03406F5837424F075F04B
:1025300015EFA4242BF582E5F03407F5837478F0C9
:1025400075F015EFA42430F582E5F03406F58374B8
:10255000D8F075F015EFA424AEF582E5F03406F559
:10256000837430F075F015EFA4242CF582E5F03477
:1025700007F5837484F075F015EFA42431F582E536
:10258000F03406F58374E4F075F015EFA424AFF58C
:1025900082E5F03406F583743CF075F015EFA42461
:1025A0002DF582E5F03407F5837490F075F015EFA2
:1025B000A42432F582E5F03406F58374F0F075F06A
:1025C00015EFA424B0F582E5F03406F5837448F0E5
:1025D00075F015EFA4242EF582E5F03407F5837429
:1025E0009CF0900893E004F0021CFE301460E4902C
:1025F0000893F0900894E0FF12B11C7C007DF0126B
:102600007447AE04AF05C374F09DFC900893E0FBE3
:10261000241EF582E43406F583ECF0C374449DFD7A
:10262000749C2BF582E43406F583EDF0AD07C3749A
:10263000989DFD900893E0241AF582E43407F58311
:10264000EDF0900893E004F0E0C3947E40A5229062
:10265000086D740AF0303D03022CC12024030228C7
:1026600075900943E004F0E0D395155003022CC1A6
:10267000E4F090086CF090086CE0FFC3947E400397
:10268000022CC1120BE4EF700302286C90086CE07E
:10269000FD7C00E4FF12959790086CE0FD75F00258
:1026A000A42415F582E5F03400F583E0FAA3E0D325
:1026B0009FEA9400402E75F002EDA42415F582E502
:1026C000F03400F583C083C0827E00C3A3E0951779
:1026D000FF0582D5820215831582E09ED082D083C9
:1026E000F0A3EFF090086CE0FD7C007F011295975D
:1026F00090086CE0FD75F002A42411F582E5F03439
:1027000001F583E0FAA3E0D39FEA9400402E75F030
:1027100002EDA42411F582E5F03401F583C083C0F5
:10272000827E00C3A3E09517FF0582D58202158340
:102730001582E09ED082D083F0A3EFF090086CE089
:10274000FD7C007F0212959790086CE0FD75F00209
:10275000A4240DF582E5F03402F583E0FAA3E0D37A
:102760009FEA9400402E75F002EDA4240DF582E559
:10277000F03402F583C083C0827E00C3A3E09517C6
:10278000FF0582D5820215831582E09ED082D08318
:10279000F0A3EFF090086CE0FD7C00E4FF12959749
:1027A00090086CE0FD75F002A42415F582E5F03484
:1027B00000F583E0FAA3E0C39FEA9400501E7C007A
:1027C000E4FF12959790086CE075F002A42415F5CB
:1027D00082E5F03400F583E4F0A3EFF090086CE0BC
:1027E000FD7C007F0112959790086CE0FD75F0026A
:1027F000A42411F582E5F03401F583E0FAA3E0C3E7
:102800009FEA9400501E7C007F0112959790086CFF
:10281000E075F002A42411F582E5F03401F583E4BB
:10282000F0A3EFF090086CE0FD7C007F021295971A
:1028300090086CE0FD75F002A4240DF582E5F034FB
:1028400002F583E0FAA3E0C39FEA9400501E7C00E7
:102850007F0212959790086CE075F002A4240DF5A4
:1028600082E5F03402F583E4F0A3EFF090086CE029
:1028700004F0022676A22672227216722340030208
:102880002A95E490086CF090086CE0FFC3947E40B9
:1028900003022CC1120BE4EF7003022A8C90086C27
:1028A000E0FD7C00E4FF12959790086CE0FD75F068
:1028B00002A42415F582E5F03400F583E0FAA3E0E4
:1028C000D39FEA9400403375F002EDA42415F582FD
:1028D000E5F03400F583C083C082E5172409FFE4E6
:1028E00033FEC3A3E09FFF0582D5820215831582C4
:1028F000E09ED082D083F0A3EFF090086CE0FD7CE6
:10290000007F0112959790086CE0FD75F002A424F9
:1029100011F582E5F03401F583E0FAA3E0D39FEAF4
:102920009400403375F002EDA42411F582E5F034F3
:1029300001F583C083C082E5172409FFE433FEC399
:10294000A3E09FFF0582D5820215831582E09ED009
:1029500082D083F0A3EFF090086CE0FD7C007F0252
:1029600012959790086CE0FD75F002A4240DF58295
:10297000E5F03402F583E0FAA3E0D39FEA94004047
:102980003375F002EDA4240DF582E5F03402F583F1
:10299000C083C082E5172409FFE433FEC3A3E09F90
:1029A000FF0582D5820215831582E09ED082D083F6
:1029B000F0A3EFF090086CE0FD7C00E4FF12959727
:1029C00090086CE0FD75F002A42415F582E5F03462
:1029D00000F583E0FAA3E0C39FEA9400501E7C0058
:1029E000E4FF12959790086CE075F002A42415F5A9
:1029F00082E5F03400F583E4F0A3EFF090086CE09A
:102A0000FD7C007F0112959790086CE0FD75F00247
:102A1000A42411F582E5F03401F583E0FAA3E0C3C4
:102A20009FEA9400501E7C007F0112959790086CDD
:102A3000E075F002A42411F582E5F03401F583E499
:102A4000F0A3EFF090086CE0FD7C007F02129597F8
:102A500090086CE0FD75F002A4240DF582E5F034D9
:102A600002F583E0FAA3E0C39FEA9400501E7C00C5
:102A70007F0212959790086CE075F002A4240DF582
:102A800082E5F03402F583E4F0A3EFF090086CE007
:102A900004F0022887A21D721C721E721F72177228
:102AA00018722B4003022CC1E490086CF090086C63
:102AB000E0FFC3947E4003022CC1120BE4EF7003CD
:102AC000022CB890086CE0FD7C00E4FF1295979012
:102AD000086CE0FD75F002A42415F582E5F03400E1
:102AE000F583E0FAA3E0D39FEA9400403575F00245
:102AF000EDA42415F582E5F03400F583E0FAA3E0B7
:102B0000C39517FFEA9400CF24FBCF34FFFE75F086
:102B100002EDA42415F582E5F03400F583EEF0A370
:102B2000EFF090086CE0FD7C007F01129597900813
:102B30006CE0FD75F002A42411F582E5F03401F596
:102B400083E0FAA3E0D39FEA9400403575F002EDEC
:102B5000A42411F582E5F03401F583E0FAA3E0C383
:102B60009517FFEA9400CF24FBCF34FFFE75F002E7
:102B7000EDA42411F582E5F03401F583EEF0A3EF26
:102B8000F090086CE0FD7C007F0212959790086C35
:102B9000E0FD75F002A4240DF582E5F03402F58322
:102BA000E0FAA3E0D39FEA9400403575F002EDA46B
:102BB000240DF582E5F03402F583E0FAA3E0C39535
:102BC00017FFEA9400CF24FBCF34FFFE75F002ED2F
:102BD000A4240DF582E5F03402F583EEF0A3EFF0C6
:102BE00090086CE0FD7C00E4FF12959790086CE083
:102BF000FD75F002A42415F582E5F03400F583E0BC
:102C0000FAA3E0C39FEA9400501E7C00E4FF1295F3
:102C10009790086CE075F002A42415F582E5F03475
:102C200000F583E4F0A3EFF090086CE0FD7C007FFA
:102C30000112959790086CE0FD75F002A42411F53F
:102C400082E5F03401F583E0FAA3E0C39FEA940043
:102C5000501E7C007F0112959790086CE075F00281
:102C6000A42411F582E5F03401F583E4F0A3EFF03C
:102C700090086CE0FD7C007F0212959790086CE054
:102C8000FD75F002A4240DF582E5F03402F583E031
:102C9000FAA3E0C39FEA9400501E7C007F021295C5
:102CA0009790086CE075F002A4240DF582E5F034ED
:102CB00002F583E4F0A3EFF090086CE004F0022A40
:102CC000AD22E490086DF090083BE004F0E0C3947E
:102CD000025003023093E490083BF090086E1275A6
:102CE0003B00000001E490086CF090086CE0FFC32A
:102CF000940A4003023058EF700790061574BC80A8
:102D000059EFB4010790061574BC805DEFB402075B
:102D100090061574BE8043EFB4030790061574BE89
:102D20008047EFB4040790061574C0802DEFB405FA
:102D30000A74C0900615F0A3F08033EFB406079034
:102D4000061574C28014EFB4070790061574C2808C
:102D500018EFB4080B90061574C4F0A3E4F0800ECD
:102D6000EFB4090A90061574C4F0A374C0F0E4909F
:102D70000872F090086EE0FCA3E0FDA3E0FEA3E083
:102D8000FF900827E0F8A3E0F9A3E0FAA3E05FFFD3
:102D9000EA5EFEE95DFDE85C4D4E4F7003023036A1
:102DA00090086CE02462F582E43408F583E075F065
:102DB00003A4FF90086DF0900616E02FFF90061513
:102DC000E034008F82F5837402937003022F9D908C
:102DD000086EE0FCA3E0FDA3E0FEA3E0FF90085B2B
:102DE000E0F8A3E0F9A3E0FAA3E05FFFEA5EFEE902
:102DF0005DFDE85CFCE4FBFAF9F8C312750B703D6D
:102E000090086DE0FF900616E02FFD900615E03467
:102E1000008D82F583E493FF740193FD7C00129092
:102E200068900860E0FEA3E0FF90086CE025E024D5
:102E30003CF582E43408F583EEF0A3EFF090086DE2
:102E4000E0FEFD900616E02DFD900615E034008DA5
:102E500082F583740293FFE493FD7C00EEFB7A001D
:102E6000900615E0F8A3E02BFBEA388B82F583741B
:102E70000193FB7A001287B590086CE0FF25E024EF
:102E80003CF582E43408F583E0FCA3E0D39400EC45
:102E900094004013EF25E0243CF582E43408F583E8
:102EA00074FFF5F01274D290086CE0FF25E0243C2A
:102EB000F582E43408F583E0FCA3E04C60030230C3
:102EC0005874622FF582E43408F583E004F090082A
:102ED0005BE0F8A3E0F9A3E0FAA3E0FB90086EE062
:102EE000FCA3E0FDA3E0FEA3E0FF1274FEEB5FFF96
:102EF000EA5EFEE95DFDE85CFC90085B12752F90D0
:102F0000086DE0C394BD500302305890086CE02473
:102F100062F582E43408F583E4F090085BE0F8A3FE
:102F2000E0F9A3E0FAA3E0FB90086EE0FCA3E0FD6B
:102F3000A3E0FEA3E0FF1274FEEB5FFFEA5EFEE992
:102F40005DFDE85CFC90085B12752F90086CE0FF5B
:102F50002450F582E43408F583E014F074502FF522
:102F600082E43408F583E07031900827E0F8A3E0AC
:102F7000F9A3E0FAA3E0FB90086EE0FCA3E0FDA358
:102F8000E0FEA3E0FF1274FEEB5FFFEA5EFEE95D88
:102F9000FDE85CFC90082712752F02302C90086C1D
:102FA000E02462F582E43408F583E4F090085BE005
:102FB000F8A3E0F9A3E0FAA3E0FB90086EE0FCA31D
:102FC000E0FDA3E0FEA3E0FF1274FEEB5FFFEA5E0C
:102FD000FEE95DFDE85CFC90085B12752F90086CC3
:102FE000E0FF2450F582E43408F583E014F07450D7
:102FF0002FF582E43408F583E07031900827E0F87B
:10300000A3E0F9A3E0FAA3E0FB90086EE0FCA3E0E4
:10301000FDA3E0FEA3E0FF1274FEEB5FFFEA5EFE9D
:10302000E95DFDE85CFC90082712752F12B224E4DC
:1030300090085FF0802290086EE0FCA3E0FDA3E022
:10304000FEA3E0FF780112751C90086E12752F9098
:10305000086CE004F0022CEA900827E0FCA3E0FDF5
:10306000A3E0FEA3E0FFEC4D4E4F702790086CF0FC
:1030700090086CE0FFC394105014742B2FF582E479
:103080003408F583E4F090086CE004F080E2E4900A
:10309000085FF022203658E4F52190093CF0A28622
:1030A0009208A2879209E521788D66603118E6259D
:1030B000E025E0543CFFE52154034FF624F560146D
:1030C00024D7601024FC60042431700E90093C74F5
:1030D000E9F0800690093C74EAF0788DA621900909
:1030E0003CE0FFB4EA03052D22EFB4E902052E22ED
:1030F00000000000000000000000000000000000D0
:103100000000000000000000900893EFF03004067B
:10311000900934E51FF07F01900893E0FE643F6062
:10312000030231B0900934E030E16EEEFD7C001214
:103130009597EF24FCFFE43403FE900893E0FD75BF
:10314000F002A4241DF582E5F03404F583EEF0A32B
:10315000EFF07F02129597EF24FCFFE43403FE901A
:103160000893E0FD75F002A42419F582E5F034051A
:1031700012958EEF24FCFFE43403FE900893E07573
:10318000F002A42421F582E5F03403F583EEF0A3E8
:10319000EFF0D248E4FF0236CA2048030236CAC222
:1031A000483031030236A92028030236CA0236B855
:1031B000900893E0FE646A6003023248304070EE8B
:1031C000FD7C007F01129597EF24FCFFE43403FEA1
:1031D000900893E0FD75F002A4241DF582E5F0341B
:1031E00004F583EEF0A3EFF07F02129597EF24FC35
:1031F000FFE43403FE900893E0FD75F002A4241967
:10320000F582E5F0340512958EEF24FCFFE43403DB
:10321000FE900893E075F002A42421F582E5F034D5
:1032200003F583EEF0A3EFF0D249E4FF0236CA3093
:103230004911C2493031030236A92028030236CA97
:103240000236B87F010236CA900893E0FE642B6014
:10325000030233042001030232ED900926E064AA40
:1032600070030232EDEEFD7C007F01129597EFFDB9
:10327000900926E075F004A42DFFEC35F0FE9008CF
:1032800093E0FD75F002A4241DF582E5F03404F509
:1032900083EEF0A3EFF07F02129597EFFD900926E1
:1032A000E075F004A42DFFEC35F0FE900893E0FDEE
:1032B00075F002A42419F582E5F0340512958EEF1D
:1032C000FD900926E075F004A42DFFEC35F0FE908A
:1032D0000893E075F002A42421F582E5F03403F5AB
:1032E00083EEF0A3EFF0D243E4FF0236CA2043039B
:1032F0000236CAC2433031030236A92028030236FF
:10330000CA0236B8900893E0FE642C60030233C012
:103310002002030233A9900926E064AA7003023355
:10332000A9EEFD7C007F01129597EFFD900926E044
:1033300075F004A42DFFEC35F0FE900893E0FD75C8
:10334000F002A4241DF582E5F03404F583EEF0A329
:10335000EFF07F02129597EFFD900926E075F004DB
:10336000A42DFFEC35F0FE900893E0FD75F002A46B
:103370002419F582E5F0340512958EEFFD900926AB
:10338000E075F004A42DFFEC35F0FE900893E07595
:10339000F002A42421F582E5F03403F583EEF0A3D6
:1033A000EFF0D244E4FF0236CA2044030236CAC218
:1033B000443031030236A92028030236CA0236B847
:1033C000900893E0FE642D600302347C2003030226
:1033D0003465900926E064AA7003023465EEFD7C32
:1033E000007F01129597EFFD900926E075F004A487
:1033F0002DFFEC35F0FE900893E0FD75F002A4245B
:103400001DF582E5F03404F583EEF0A3EFF07F02C2
:10341000129597EFFD900926E075F004A42DFFECBE
:1034200035F0FE900893E0FD75F002A42419F582B2
:10343000E5F0340512958EEFFD900926E075F00455
:10344000A42DFFEC35F0FE900893E075F002A42463
:1034500021F582E5F03403F583EEF0A3EFF0D245D9
:10346000E4FF0236CA2045030236CAC245303103A2
:103470000236A92028030236CA0236B8900893E023
:10348000FE6434600302354B20000302352A9009A4
:1034900026E0FD64AA700302352AED64AB700302D6
:1034A000352AEEFD7C007F02129597EFFD900926EC
:1034B000E075F004A42DFFEC35F0FE900893E0FDDC
:1034C00075F002A42419F582E5F03405F583EEF0D9
:1034D000A3EFF07F01129597EFFD900926E075F0BC
:1034E00004A42DFFEC35F0FE900893E0FD75F0028A
:1034F000A4241DF582E5F0340412958EEFFD9009A9
:1035000026E075F004A42DFFEC35F0FE900893E062
:1035100075F002A42421F582E5F03403F583EEF082
:10352000A3EFF0D246E4FF0236CA2046030236CAB1
:10353000C24630310B9008931236CBE4FF0236CAF4
:103540003028030236B87F010236CA900893E0FEA5
:10355000646E6003023603A22C722140030235E838
:10356000EEFD7C007F01129597EFFD90091EE0753E
:10357000F004A42DFFEC35F0FE900893E0FD75F00B
:1035800002A4241DF582E5F0340412958EEFFD901F
:10359000091EE075F004A42DFFEC35F0FE900893B1
:1035A000E0FD75F002A42421F582E5F03403F583F3
:1035B000EEF0A3EFF07F02129597EFFD90091EE069
:1035C00075F004A42DFFEC35F0FE900893E075F043
:1035D00002A42419F582E5F03405F583EEF0A3EF9B
:1035E000F0E4FFD24A0236CA304A13C24A303103ED
:1035F0000236A93028030236B87F010236CA7F019D
:103600000236CA900893E0FE647660030236CA90E0
:10361000092FE064AA70030236A1EEFD7C007F0151
:10362000129597EFFD90092FE075F004A42DFFECA3
:1036300035F0FE900893E0FD75F002A4241DF5829C
:10364000E5F0340412958EEFFD90092FE075F0043B
:10365000A42DFFEC35F0FE900893E0FD75F002A478
:103660002421F582E5F03403F583EEF0A3EFF07F3B
:1036700002129597EFFD90092FE075F004A42DFF3D
:10368000EC35F0FE900893E075F002A42419F58261
:10369000E5F03405F583EEF0A3EFF0E4FFD24780C8
:1036A00029304724C24730310C900893E0FF12576D
:1036B000B4E4FF801530280C900893E0FF127108E5
:1036C000E4FF80067F0180027F0122E0FFE516FD16
:1036D0007C007BFF7A009008A1EFF09008A4EAF04C
:1036E000A3EBF09008A2ECF0A3EDF064014C70683D
:1036F0009008A1E0FD7C00E4FF129597EFFB7A00B3
:10370000AF177E009008A4E0FCA3E0FD1274357CA6
:10371000007D0512749CEF7802C333CE33CED8F906
:103720002BFFEE3AFE9008A1E0FD75F002A42415EF
:10373000F582E5F03400F583EEF0A3EFF07C007F36
:10374000011295979008A1E0FD75F002A42411F5EF
:1037500082E5F034010238749008A2E07004A3E01E
:10376000640260030238009008A1E0FD7C00E4FFE1
:10377000129597EFFB7A00AF177E009008A4E0FC4B
:10378000A3E0FD1274357C007D0512749CEF780275
:10379000C333CE33CED8F92BFFEE3AFE9008A1E02A
:1037A000FD75F002A42415F582E5F03400F583EEF2
:1037B000F0A3EFF07C007F01129597EFFB7A00AF4A
:1037C000177E009008A4E0FCA3E0FD1274357C0095
:1037D0007D0512749CEF7802C333CE33CED8F92B1B
:1037E000FFEE3AFE9008A1E0FD75F002A42411F569
:1037F00082E5F03401F583EEF0A3EFF07C00807BEE
:103800009008A2E07004A3E0640360030238939080
:1038100008A1E0FD7C007F01129597EFFB7A00AFD5
:10382000177E009008A4E0FCA3E0FD1274357C0034
:103830007D0512749CEF7802C333CE33CED8F92BBA
:10384000FFEE3AFE9008A1E0FD75F002A42411F508
:1038500082E5F03401F583EEF0A3EFF07C00E4FFA5
:103860001295979008A1E0FD75F002A42415F58249
:10387000E5F03400F583E4F0A3EFF07F02129597B2
:103880009008A1E075F002A4240DF582E5F0340261
:10389000023C479008A2E07004A3E06404600302C5
:1038A00039269008A1E0FD7C007F02129597EFFB7E
:1038B0007A00AF177E009008A4E0FCA3E0FD12742C
:1038C000357C007D0512749CEF7802C333CE33CE75
:1038D000D8F92BFFEE3AFE9008A1E0FD75F002A4A6
:1038E000240DF582E5F03402F583EEF0A3EFF07CD1
:1038F00000E4FF1295979008A1E0FD75F002A42462
:1039000015F582E5F03400F583E4F0A3EFF07F01D4
:103910001295979008A1E075F002A42411F582E5B4
:10392000F03401023C479008A2E07004A3E0640573
:1039300060030239E49008A1E0FD7C007F0112954C
:1039400097EFFB7A00AF177E009008A4E0FCA3E09D
:10395000FD1274357C007D0512749CEF7802C33330
:10396000CE33CED8F92BFFEE3AFE9008A1E0FD75DC
:10397000F002A42411F582E5F03401F583EEF0A302
:10398000EFF07C007F02129597EFFB7A00AF177E75
:10399000009008A4E0FCA3E0FD1274357C007D05D6
:1039A00012749CEF7802C333CE33CED8F92BFFEEDE
:1039B0003AFE9008A1E0FD75F002A4240DF582E521
:1039C000F03402F583EEF0A3EFF07C00E4FF1295F3
:1039D000979008A1E075F002A42415F582E5F03473
:1039E00000023C479008A2E07004A3E06406600374
:1039F000023AA29008A1E0FD7C007F02129597EFA9
:103A0000FB7A00AF177E009008A4E0FCA3E0FD1253
:103A100074357C007D0512749CEF7802C333CE337D
:103A2000CED8F92BFFEE3AFE9008A1E0FD75F0022A
:103A3000A4240DF582E5F03402F583EEF0A3EFF057
:103A40007C00E4FF129597EFFB7A00AF177E0090A1
:103A500008A4E0FCA3E0FD1274357C007D0512741F
:103A60009CEF7802C333CE33CED8F92BFFEE3AFE6B
:103A70009008A1E0FD75F002A42415F582E5F0346C
:103A800000F583EEF0A3EFF07C007F011295979094
:103A900008A1E075F002A42411F582E5F0340102DA
:103AA0003C479008A2E07004A3E064076003023B77
:103AB0008C9008A1E0FD7C007F02129597EFFB7AC5
:103AC00000AF177E009008A4E0FCA3E0FD1274355F
:103AD0007C007D0512749CEF7802C333CE33CED8C0
:103AE000F92BFFEE3AFE9008A1E0FD75F002A42448
:103AF0000DF582E5F03402F583EEF0A3EFF07C00E3
:103B0000E4FF129597EFFB7A00AF177E009008A4B0
:103B1000E0FCA3E0FD1274357C007D0512749CEF7F
:103B20007802C333CE33CED8F92BFFEE3AFE90089D
:103B3000A1E0FD75F002A42415F582E5F03400F54E
:103B400083EEF0A3EFF07C007F01129597EFFB7AF4
:103B500000AF177E009008A4E0FCA3E0FD127435CE
:103B60007C007D0512749CEF7802C333CE33CED82F
:103B7000F92BFFEE3AFE9008A1E075F002A42411A3
:103B8000F582E5F03401F583EE023C4A9008A2E0AC
:103B90007004A3E064086003023C4E9008A1E0FDBD
:103BA0007C007F02129597EFFB7A00AF177E0090A2
:103BB00008A4E0FCA3E0FD1274357C007D051274BE
:103BC0009CEF7802C333CE33CED8F92BFFEE3AFE0A
:103BD0009008A1E0FD75F002A4240DF582E5F03413
:103BE00002F583EEF0A3EFF07C00E4FF129597EF6F
:103BF000FB7A00AF177E009008A4E0FCA3E0FD1262
:103C000074357C007D0512749CEF7802C333CE338B
:103C1000CED8F92BFFEE3AFE9008A1E0FD75F00238
:103C2000A42415F582E5F03400F583EEF0A3EFF05F
:103C30007C007F011295979008A1E075F002A42402
:103C400011F582E5F03401F583E4F0A3EFF0229062
:103C50000894EFF0120BE4EF70030241AFE5166039
:103C600003023CF8900894E0FD7C00E4FF12959775
:103C7000EFFB7A00E51A8517F0A4FFAEF07C007D1B
:103C800005127447EF75F004A42BFFEA35F0FE909F
:103C90000894E0FD75F002A42415F582E5F03400E7
:103CA000F583EEF0A3EFF07C007F01129597EFFB18
:103CB0007A00E5198517F0A4FFAEF07C007D0512AF
:103CC0007447EF75F004A42BFFEA35F0FE900894DA
:103CD000E0FD75F002A42411F582E5F03401F583CE
:103CE000EEF0A3EFF07C007F02129597EFFB7A00D5
:103CF000E5188517F0023FD5E51664086003024118
:103D00009E202403023E14AF0812B20E74732FF8E3
:103D1000E6FEC006AF0812B1CCD0E05F70030241EE
:103D2000AF900922E004F07006900921E004F0D37E
:103D3000900922E09405900921E094004004E4F009
:103D4000A3F0900894E0FD7C00E4FF1295979008A2
:103D500094E0FD75F002A42415F582E5F03400F539
:103D600083E4F0A3EFF07C007F0112959790089414
:103D7000E0FD75F002A42411F582E5F03401F5832D
:103D8000E4F0A3EFF07C007F02129597900894E096
:103D9000FD75F002A4240DF582E5F03402F583E40C
:103DA000F0A3EFF0900921E07002A3E07003023F5E
:103DB0009C900921E07004A3E064017003023FAC11
:103DC000900921E07004A3E064027018900894E068
:103DD000FD7C007F02129597EFFB7A00E51775F0E6
:103DE000FF023FD5900921E07004A3E06403700353
:103DF00002400A900921E07004A3E0640470030209
:103E00004092900921E07004A3E064056003024140
:103E1000AF02411D203103023EF5900894E0FD7C85
:103E200000E4FF129597900894E0FD75F002A42439
:103E300015F582E5F03400F583E4F0A3EFF07C00A3
:103E40007F01129597900894E0FD75F002A424116B
:103E5000F582E5F03401F583E4F0A3EFF07C007F18
:103E600002129597900894E0FD75F002A4240DF5D8
:103E700082E5F03402F583E4F0A3EFF0ED75F00590
:103E800084AFF07E00900896EEF0A3EFF07003028E
:103E90003F9C900896E07004A3E064017003023F29
:103EA000AC900896E07004A3E06402701890089447
:103EB000E0FD7C007F02129597EFFB7A00E5177515
:103EC000F0FF023FD5900896E07004A3E064037011
:103ED0000302400A900896E07004A3E064047003B3
:103EE000024092900896E07004A3E064056003022B
:103EF00041AF02411DAFCC900896E4F0A3EFF0E093
:103F0000FFADCDED900896CFF0A3EFF0900894E0D0
:103F1000FBFF900897E02FF0900896E03400F0E067
:103F2000FEA3E0FF7C007D05127447900896ECF03C
:103F3000A3EDF0EBFD7C00E4FF129597900894E070
:103F4000FD75F002A42415F582E5F03400F583E454
:103F5000F0A3EFF07C007F01129597900894E0FDAC
:103F600075F002A42411F582E5F03401F583E4F044
:103F7000A3EFF07C007F02129597900894E0FD7506
:103F8000F002A4240DF582E5F03402F583E4F0A3F9
:103F9000EFF0900896E07002A3E07004FC02416329
:103FA000900896E07004A3E064017008900894E023
:103FB000FD02404D900896E07004A3E06402703E5C
:103FC000900894E0FD7C007F02129597EFFB7A0049
:103FD000E51775F0FFA4FFAEF07C007D0512744775
:103FE000EF75F004A42BFFEA35F0FE900894E0751D
:103FF000F002A4240DF582E5F03402024196900807
:1040000096E07004A3E06403707C900894E0FD7C6B
:1040100000E4FF129597EFFB7A00E51775F0FFA417
:10402000FFAEF07C007D05127447EF75F004A42B01
:10403000FFEA35F0FE900894E0FD75F002A4241527
:10404000F582E5F03400F583EEF0A3EFF07C007F1D
:1040500001129597EFFB7A00E51775F0FFA4FFAE0C
:10406000F07C007D05127447EF75F004A42BFFEA85
:1040700035F0FE900894E075F002A42411F582E575
:10408000F03401024196900896E07004A3E06404C5
:10409000707C900894E0FD7C007F02129597EFFB06
:1040A0007A00E51775F0FFA4FFAEF07C007D0512E5
:1040B0007447EF75F004A42BFFEA35F0FE900894E6
:1040C000E0FD75F002A4240DF582E5F03402F583DD
:1040D000EEF0A3EFF07C007F01129597EFFB7A00E2
:1040E000E51775F0FFA4FFAEF07C007D0512744764
:1040F000EF75F004A42BFFEA35F0FE900894E0750C
:10410000F002A42411F582E5F034010241969008F2
:1041100096E07004A3E0640560030241AF90089448
:10412000E0FD7C007F02129597EFFB7A00E51775A2
:10413000F0FFA4FFAEF07C007D05127447EF75F030
:1041400004A42BFFEA35F0FE900894E0FD75F00220
:10415000A4240DF582E5F03402F583EEF0A3EFF030
:104160007C00E4FF129597EFFB7A00E51775F0FFEE
:10417000A4FFAEF07C007D05127447EF75F004A437
:104180002BFFEA35F0FE900894E075F002A42415A8
:10419000F582E5F03400F583EEF0A3EFF02290080D
:1041A00094E0FFE516FD7C007BFF7A001236D622F4
:1041B000900892EFF0E51E6401600302427CE51D69
:1041C000640170609008A6E0FCA3E0FD4C701A75D5
:1041D000B50175B90190061704F0A374F8F07F6378
:1041E00012A9DDA374C60243A7D3ED9403EC940097
:1041F00050030246FC900619E0FEA3E0FF900892EF
:10420000E0FD12A74290061AE004F070069006192D
:10421000E004F0900618E024FFF0900617E034FF69
:10422000F00246FCC39008A7E094029008A6E09430
:104230000050030246FC900617E07002A3E07003F2
:104240000246FC900619E0FEA3E0FF900892E0FD14
:1042500012A74290061AE004F07006900619E004D6
:10426000F0900618E024FFF0900617E034FFF0E02D
:104270007002A3E060030246FC024534E51E6402BE
:1042800060030243689008A6E07002A3E0700E7518
:10429000B50175B901C25C12A0840246FC9008A663
:1042A000E07004A3E064047010900892E0FF12B282
:1042B0006890092DEFF00246FC9008A6E0FEA3E00E
:1042C000FF64064E700E900892E0FDC374059DF5E4
:1042D000150246FCEF64074E7009900892E0F5174E
:1042E0000246FC9008A6E0FEA3E0FF64084E700BB7
:1042F000F516900892E0F51A0246FCEF64094E703C
:1043000009900892E0F5190246FC9008A6E0FEA389
:10431000E0FF640A4E7009900892E0F5180246FC2E
:10432000EF640B4E7013900892E0B4010675160806
:104330000246FCE4F5160246FC9008A6E0FEA3E067
:10434000FF640C4E700B900892E090093FF002461B
:10435000FCEF643C4E60030246FCD25975B5027511
:10436000B902128CBB0246FCE51E640460030243E2
:10437000FFE51D640170569008A6E0FCA3E0FD4C2B
:10438000702C75B50175B9019006177407F0A37408
:1043900080F012A9CF0F12A9DDE490031FF0900363
:1043A0001EF090061974BCF0A3E4F00246FCD3EDB5
:1043B0009403EC940050030246FC900617E0700250
:1043C000A3E070030246FC128F820246FCC39008F1
:1043D000A7E094029008A6E0940050030246FC90E7
:1043E0000617E07002A3E070030246FC128F829071
:1043F0000617E07002A3E060030246FC024534E5C4
:104400001E6403600302453DE51D64016003024430
:10441000B69008A6E0FEA3E0FF4E700875B50175E2
:10442000B9018027EF64044E7021900892E0900952
:1044300045F090092D7413F012A084E490031EF04F
:10444000A3F090061704F0A3747AF0D39008A7E0C5
:1044500094049008A6E0940050030246FC900617CE
:10446000E07002A3E070030246FC900618E024FF0F
:10447000F0900617E034FFF0900892E0FF7E00C055
:1044800007C00690031FE075F0FCA42421F582E527
:10449000F03403F583C083C08290031EE0FF12B1A5
:1044A000DAD082D08375F002EF12756CD0E0F0A301
:1044B000D0E0F002463DC39008A7E094029008A621
:1044C000E0940050030246FC900617E07002A3E05F
:1044D00070030246FC900618E024FFF0900617E0F7
:1044E00034FFF0900892E0FF7E00C007C006900302
:1044F0001FE075F0FCA42421F582E5F03403F58378
:10450000C083C08290031EE0FF12B1DAD082D08354
:1045100075F002EF12756CD0E0F0A3D0E0F012005D
:104520001E900617E07002A3E060030246FC12939F
:1045300096128CBB75B50275B9020246FCE51E6485
:104540000660030246FCE51D6401600302464390D9
:1045500008A6E0FEA3E0FF4E704590061704F0A306
:10456000747AF0E490031FF090031EF0C231C22869
:10457000C21BC230C211C210C233C225C213C21C38
:10458000C223C224C226C222C22BC21FC21EC21D07
:10459000C22AC218C217C214C212D25A0246FCD38F
:1045A000EF9403EE940050030246FC900617E0706F
:1045B00002A3E070030246FC900618E024FFF0908E
:1045C0000617E034FFF090031EE0FF7E0012B1DA20
:1045D000123108EF605E90031EE0FF7E0012B1DA38
:1045E000EFFD7C0090031FE0FF129597EFFD7C002C
:1045F000900892E075F004A42DFFEC35F0FEC007A2
:10460000C00690031FE075F0FCA42421F582E5F0BC
:104610003403F583C083C08290031EE0FF7E001246
:10462000B1DAD082D08375F002EF12756CD0E0F071
:10463000A3D0E0F0900892E06003E4F5B112001E10
:104640000246FCE51DD3940150030246FC9008A7E6
:10465000E094029008A6E0940050030246FC900605
:1046600017E07002A3E070030246FC900618E024F5
:10467000FFF0900617E034FFF090031EE0FF7E008D
:1046800012B1DA123108EF605E90031EE0FF7E0087
:1046900012B1DAEFFD7C0090031FE0FF129597EF57
:1046A000FD7C00900892E075F004A42DFFEC35F03D
:1046B000FEC007C00690031FE075F0FCA42421F59E
:1046C00082E5F03403F583C083C08290031EE0FFCF
:1046D0007E0012B1DAD082D08375F002EF12756CD1
:1046E000D0E0F0A3D0E0F012001E900617E07002B8
:1046F000A3E07008D25C90032074FAF09008A7E061
:1047000004F070069008A6E004F022202503024879
:104710002A900943E004F0E0C395155003024C2EA3
:10472000E4900943F090061EE0FF12A30990061ED4
:10473000EFF012A30990061EEFF012A30990061ED7
:10474000EFF0E490086CF090086CE0FFC3947E40BA
:1047500003024C2E120BE4EF700302482190086C08
:10476000E0FD7C00E4FF129597EFFB7A0090061DB8
:10477000E08517F0A4FFAEF07C007D05127447EFD2
:1047800075F004A42BFFEA35F0FE90086CE0FD758F
:10479000F002A42415F582E5F03400F583EEF0A3D1
:1047A000EFF07C007F01129597EFFB7A0090061CDA
:1047B000E08517F0A4FFAEF07C007D05127447EF92
:1047C00075F004A42BFFEA35F0FE90086CE0FD754F
:1047D000F002A42411F582E5F03401F583EEF0A394
:1047E000EFF07C007F02129597EFFB7A009007981C
:1047F000E08517F0A4FFAEF07C007D05127447EF52
:1048000075F004A42BFFEA35F0FE90086CE075F01B
:1048100002A4240DF582E5F03402F583EEF0A3EF57
:10482000F090086CE004F0024747A2107233721156
:104830007213721272144003024C2E900943E0046A
:10484000F0E0C395155003024C2EE4900943F0E5C7
:104850001664086003024A8990086CF090086CE0C6
:10486000FFC3947E4003024C2E120BE4EF70030250
:10487000496090086CE0FD7C00E4FF129597EFFB27
:104880007A0090086CE0241EF582E43406F583E09B
:1048900090683A938517F0A4FFAEF07C007D051276
:1048A0007447EF75F004A42BFFEA35F0FE90086C16
:1048B000E0FD75F002A42415F582E5F03400F583DF
:1048C000EEF0A3EFF07C007F01129597EFFB7A00EA
:1048D00090086CE0249CF582E43406F583E090684F
:1048E0003A938517F0A4FFAEF07C007D0512744763
:1048F000EF75F004A42BFFEA35F0FE90086CE0FDA4
:1049000075F002A42411F582E5F03401F583EEF090
:10491000A3EFF07C007F02129597EFFB7A009008DE
:104920006CE0241AF582E43407F583E090683A934A
:104930008517F0A4FFAEF07C007D05127447EF757B
:10494000F004A42BFFEA35F0FE90086CE075F0024D
:10495000A4240DF582E5F03402F583EEF0A3EFF028
:1049600090086CE0FF241EF582E43406F583E00431
:10497000F0741E2FF582E43406F583E0D394EF4003
:104980000F90086CE0241EF582E43406F583E4F011
:1049900090086CE0FF249CF582E43406F583E00483
:1049A000F0749C2FF582E43406F583E0D394EF4055
:1049B0000F90086CE0249CF582E43406F583E4F063
:1049C00090086CE0FF241AF582E43407F583E004D4
:1049D000F0741A2FF582E43407F583E0D394EF40A6
:1049E0000F90086CE0241AF582E43407F583E4F0B4
:1049F00090086CE0FF241EF582E43406F583E004A1
:104A0000F0741E2FF582E43406F583E0D394EF4072
:104A10000F90086CE0241EF582E43406F583E4F080
:104A200090086CE0FF249CF582E43406F583E004F2
:104A3000F0749C2FF582E43406F583E0D394EF40C4
:104A40000F90086CE0249CF582E43406F583E4F0D2
:104A500090086CE0FF241AF582E43407F583E00443
:104A6000F0741A2FF582E43407F583E0D394EF4015
:104A70000F90086CE0241AF582E43407F583E4F023
:104A800090086CE004F002485CE490086CF0900838
:104A90006CE0FFC3947E4003024C2E120BE4EF70D7
:104AA00003024BC590086CE0FD7C00E4FF12959773
:104AB000EFFB7A0090086CE0241EF582E43406F5E2
:104AC00083E090683A93FFE51A8FF0A4FFAEF07C84
:104AD000007DFF127447EF8517F0A4FFAEF07C0055
:104AE0007D05127447EF75F004A42BFFEA35F0FE44
:104AF00090086CE0FD75F002A42415F582E5F03411
:104B000000F583EEF0A3EFF07C007F01129597EFA4
:104B1000FB7A0090086CE0241EF582E43406F583ED
:104B2000E090683A93FFE5198FF0A4FFAEF07C00A7
:104B30007DFF127447EF8517F0A4FFAEF07C007D77
:104B400005127447EF75F004A42BFFEA35F0FE90D0
:104B5000086CE0FD75F002A42411F582E5F0340143
:104B6000F583EEF0A3EFF07C007F02129597EFFB48
:104B70007A0090086CE0241EF582E43406F583E0A8
:104B800090683A93FFE5188FF0A4FFAEF07C007DAB
:104B9000FF127447EF8517F0A4FFAEF07C007D058F
:104BA000127447EF75F004A42BFFEA35F0FE90086D
:104BB0006CE075F002A4240DF582E5F03402F58373
:104BC000EEF0A3EFF090086CE0FF241EF582E434D1
:104BD00006F583E004F0741E2FF582E43406F583B5
:104BE000E0D394EF400F90086CE0241EF582E4348B
:104BF00006F583E4F090086CE0FF241EF582E434AF
:104C000006F583E004F0741E2FF582E43406F58384
:104C1000E0D394EF400F90086CE0241EF582E4345A
:104C200006F583E4F090086CE004F0024A8E2290CE
:104C30000893EFF012A084D22890092D7413F090FD
:104C40000945E0FFB4010790061574CA8014EFB45B
:104C5000020790061574CC8009EFB403099006157D
:104C600074CEF0A3E4F0E4900894F0900894E0FF90
:104C7000C3947E4003024E25900615E0FCA3E0F5A8
:104C8000828C83E493604CEFFD7C00E4FF129597E7
:104C9000EFFB7A00900615E0FEA3E0F5828E83E438
:104CA000938517F0A4FFAEF07C007D05127447EFEA
:104CB00075F004A42BFFEA35F0FE900894E075F03F
:104CC00002A42415F582E5F03400F583EEF0A3EF9D
:104CD000F08023900894E0FD7C00E4FF129597900B
:104CE0000894E075F002A42415F582E5F03400F58F
:104CF00083E4F0A3EFF0900616E004F0700690064F
:104D000015E004F0900615E0FEA3E0F5828E83E442
:104D100093900894604CE0FD7C007F01129597EF22
:104D2000FB7A00900615E0FEA3E0F5828E83E49303
:104D30008517F0A4FFAEF07C007D05127447EF7577
:104D4000F004A42BFFEA35F0FE900894E075F00221
:104D5000A42411F582E5F03401F583EEF0A3EFF021
:104D60008020E0FD7C007F01129597900894E0750B
:104D7000F002A42411F582E5F03401F583E4F0A3F8
:104D8000EFF0900616E004F07006900615E004F0CF
:104D9000900615E0FEA3E0F5828E83E493900894DC
:104DA000604CE0FD7C007F02129597EFFB7A00904B
:104DB0000615E0FEA3E0F5828E83E4938517F0A448
:104DC000FFAEF07C007D05127447EF75F004A42B54
:104DD000FFEA35F0FE900894E075F002A4240DF58A
:104DE00082E5F03402F583EEF0A3EFF08020E0FDE1
:104DF0007C007F02129597900894E075F002A4243D
:104E00000DF582E5F03402F583E4F0A3EFF09006AF
:104E100016E004F07006900615E004F0900894E0A7
:104E200004F0024C6B900615E0FEA3E0F5828E8341
:104E3000E493FF64AA7003024FA4900945E0640163
:104E40006003024EDC900894E0FD7C00E4FF1295C4
:104E500097EFFB7A00E51775F0FFA4FFAEF07C003A
:104E60007D05127447EF75F004A42BFFEA35F0FEC0
:104E7000900097F0A3EFF0900095EEF0A3EFF09084
:104E8000006DEEF0A3EFF0900099EEF0A3EFF0903C
:104E90000894E0FD7C00E4FF129597EFFB7A00E5B3
:104EA0001775F0FFA4FFAEF07C007D05127447EF8C
:104EB00075F004A42BFFEA35F0FE9000DBF0A3EFC1
:104EC000F0900105EEF0A3EFF0900103EEF0A3EFF8
:104ED000F0900107EEF0A3EFF0024FA1900945E03A
:104EE0006402705C900894F0900894E0FFC3941CF6
:104EF0004003024FA1EFFD7C00E4FF129597EFFB0A
:104F00007A00E51775F0FFA4FFAEF07C007D051276
:104F10007447EF75F004A42BFFEA35F0FE90089477
:104F2000E0909B029375F002A42411F582E5F03421
:104F300001F583EEF0A3EFF0900894E004F080A870
:104F4000900945E064037059900894F0900894E04B
:104F5000FFC39415504BEFFD7C00E4FF129597EFD3
:104F6000FB7A00E51775F0FFA4FFAEF07C007D052D
:104F7000127447EF75F004A42BFFEA35F0FE900899
:104F800094E0909B1E9375F002A4240DF582E5F049
:104F90003402F583EEF0A3EFF0900894E004F08083
:104FA000AB1278977F2B120BE47F2C120BE47F2D32
:104FB000120BE47F34120BE47F6E120BE47F761247
:104FC0000BE47F3F120BE47F6A020BE475C0FF43E2
:104FD000888743B005E512B40E005067904FE3F8A0
:104FE00028287302500D0250110250150250190268
:104FF000501D02502102502502502902502D02500E
:105000003102503502503902503D025041C2C08039
:1050100032C2C1802EC2C2802AC2C38026C2C480CE
:1050200022C2C5801EC2C6801AC2C78016C288802E
:1050300012C289800EC28A800AC28F8006C2B080E6
:1050400002C2B2E58825E05430FFE5F8540F4F4422
:10505000C1FF90FF80E054DFF0E58825E05430FE8A
:10506000E5F8540F4E44C1FE6F705B74002512F5D5
:1050700082E43400F583E06F602474092512F58220
:10508000E43403F5837403F074002512F582E434EC
:1050900000F583EFF0744E2512F8E4F680287409C9
:1050A0002512F582E43403F583E0601074092512BB
:1050B000F582E43403F583E014F0800AEFF4FF7422
:1050C0004E2512F8A6070512E512D3940E4008E407
:1050D000F512D23F12105DA23572157236500302DE
:1050E00096C8305C03025D9B125ACA220000000081
:1050F00000000000000000000000000000000000B0
:105100000000000000000000900911E0FFC39400BF
:10511000400DEFD394145007E4900874F08062EFD0
:10512000C39415400EEFD39429500890087474016D
:10513000F0804EEFC3942A400EEFD3943E50089077
:1051400008747402F0803AEFC3943F400EEFD3949A
:105150005350089008747403F08026EFC3945440B1
:105160000EEFD3946850089008747404F08012EF26
:10517000C39469400CEFD3947D5006900874740575
:10518000F0900912E064017024900911E090087217
:10519000F0A3F0FF7E00A3E0FD7C00128583900861
:1051A00073E0FF7E00A3E0FD7C001285839009126E
:1051B000E0FF900911E0FEC39FFD900872F0EE2F12
:1051C000A3F0EDFF7E00A3E0FD7C00128583900834
:1051D00073E0FF7E00A3E0FD7C00128583A22372B2
:1051E00022721E721C721D400302547F900912E04D
:1051F000FF9401407A900911E09F24EDFF9008721E
:10520000F07E00900874E024FFFDE434FFFC12857A
:1052100083900912E0FF900911E02F24E9FF900824
:1052200073F07E00A3E024FFFDE434FFFC128583CD
:10523000900912E0FF900911E0C39F2417FF900826
:1052400072F07E00900874E02401FDE433FC1285C6
:1052500083900912E0FF900911E02F2413FF9008BA
:1052600073F07E00A3E02401FDE433FC12858390FB
:105270000912E0FFD39402407A900911E09F24D9EB
:10528000FF900872F07E00900874E024FEFDE43484
:10529000FFFC128583900912E0FF900911E02F2492
:1052A000D3FF900873F07E00A3E024FEFDE434FFFA
:1052B000FC128583900912E0FF900911E0C39F243E
:1052C0002DFF900872F07E00900874E02402FDE447
:1052D00033FC128583900912E0FF900911E02F241E
:1052E00027FF900873F07E00A3E02402FDE433FC66
:1052F000128583900912E0FFD39403407A9009113C
:10530000E09F24C5FF900872F07E00900874E024AE
:10531000FDFDE434FFFC128583900912E0FF900943
:1053200011E02F24BDFF900873F07E00A3E024FD60
:10533000FDE434FFFC128583900912E0FF9009110F
:10534000E0C39F2443FF900872F07E00900874E051
:105350002403FDE433FC128583900912E0FF9009D9
:1053600011E02F243BFF900873F07E00A3E024039C
:10537000FDE433FC128583900912E0FFD3940440CE
:105380007A900911E09F24B1FF900872F07E00909E
:105390000874E024FCFDE434FFFC128583900912BC
:1053A000E0FF900911E02F24A7FF900873F07E0022
:1053B000A3E024FCFDE434FFFC128583900912E095
:1053C000FF900911E0C39F2459FF900872F07E00FE
:1053D000900874E02404FDE433FC128583900912E4
:1053E000E0FF900911E02F244FFF900873F07E003A
:1053F000A3E02404FDE433FC128583900912E0FF4E
:10540000D39405407A900911E09F249DFF90087283
:10541000F07E00900874E024FBFDE434FFFC12856C
:1054200083900912E0FF900911E02F2491FF90086A
:1054300073F07E00A3E024FBFDE434FFFC128583BF
:10544000900912E0FF900911E0C39F246FFF9008BC
:1054500072F07E00900874E02405FDE433FC1285B0
:1054600083900912E0FF900911E02F2463FF900858
:1054700073F07E00A3E02405FDE433FC1285832253
:105480009008ABE0FD6401703F9008C87466F0A31B
:10549000745BF09008C1E4F0A37412F09008AFE0E0
:1054A000FE9008AEE0FBEBFF9008BFEEF0A3EFF03C
:1054B000C39412EE940050059008BF80039008C179
:1054C000E0FEA3E0FF02579BED6402703F9008C826
:1054D0007466F0A3746DF09008C1E4F0A3743BF01F
:1054E0009008AFE0FE9008AEE0FDEDFF9008BFEE43
:1054F000F0A3EFF0C3943BEE940050059008BF80FA
:10550000039008C1E0FEA3E0FF02579B9008ABE0C8
:10551000FD640360030256779008AAE0FC703F9098
:1055200008C87465F0A37497F09008C1E4F0A37400
:1055300004F09008AFE0FE9008AEE0FBEBFF9008AF
:10554000BFEEF0A3EFF0C39404EE94005005900872
:10555000BF80039008C1E0FEA3E0FF02579BEC640C
:1055600001703F9008C87465F0A37464F09008C19E
:10557000E4F0A37418F09008AFE0FE9008AEE0FBF2
:10558000EBFF9008BFEEF0A3EFF0C39418EE940089
:1055900050059008BF80039008C1E0FEA3E0FF0221
:1055A000579B9008AAE0FC6402703F9008C874659D
:1055B000F0A3743EF09008C1E4F0A37426F09008C4
:1055C000AFE0FE9008AEE0FBEBFF9008BFEEF0A36B
:1055D000EFF0C39426EE940050059008BF8003902E
:1055E00008C1E0FEA3E0FF02579BEC6403703F900C
:1055F00008C87465F0A3747CF09008C1E4F0A3744B
:105600000AF09008AFE0FE9008AEE0FBEBFF9008D8
:10561000BFEEF0A3EFF0C3940AEE9400500590089B
:10562000BF80039008C1E0FEA3E0FF02579B9008F3
:10563000AAE0F4703F9008C87465F0A37486F090F7
:1056400008C1E4F0A37411F09008AFE0FE9008AE3A
:10565000E0FBEBFF9008BFEEF0A3EFF0C39411EE78
:10566000940050059008BF80039008C1E0FEA3E0BD
:10567000FF02579B0257A7ED6422600302570C906C
:1056800008ACE0FD703F9008C87465F0A3749BF00F
:105690009008C1E4F0A37443F09008AFE0FE9008D6
:1056A000AEE0FBEBFF9008BFEEF0A3EFF0C3944336
:1056B000EE940050059008BF80039008C1E0FEA35F
:1056C000E0FF02579BED6401703F9008C87465F0DD
:1056D000A374DEF09008C1E4F0A3747DF09008AFED
:1056E000E0FE9008AEE0FDEDFF9008BFEEF0A3EF06
:1056F000F0C3947DEE940050059008BF800390089D
:10570000C1E0FEA3E0FF02579B0257A79008ABE061
:10571000642160030257A7A3E0FD703E9008C8749F
:1057200066F0A374A8F09008C1E4F0A37409F090A7
:1057300008AFE0FE9008AEE0FBEBFF9008BFEEF094
:10574000A3EFF0C39409EE940050059008BF8003C6
:105750009008C1E0FEA3E0FF8041ED640170469037
:1057600008C87466F0A374B1F09008C1E4F0A374A3
:1057700009F09008AFE0FE9008AEE0FDEDFF900864
:10578000BFEEF0A3EFF0C39409EE9400500590082B
:10579000BF80039008C1E0FEA3E0FF9008C1EEF0D7
:1057A000A3EFF08005800002B25A12A1095393FEC4
:1057B0004397042290089BEFF0E5166003025849D6
:1057C000E0FD7C00E4FF129597EFFB7A00E51A8577
:1057D00017F0A4FFAEF07D05127447EF75F004A436
:1057E0002BFFEA35F0FE90089BE0FD75F002A42443
:1057F00015F582E5F03400F583EEF0A3EFF07C00C0
:105800007F01129597EFFBE5198517F0A4FFAEF025
:105810007D05127447EF75F004A42BFFEA35F0FE06
:1058200090089BE0FD75F002A42411F582E5F034A8
:1058300001F583EEF0A3EFF07C007F02129597EF65
:10584000FBE5188517F002590EE51664086003029F
:105850005AC390089BE0FD7C00E4FF1295979008E6
:105860009BE0FD75F002A42415F582E5F03400F507
:1058700083E4F0A3EFF07F0112959790089BE0FD81
:1058800075F002A42411F582E5F03401F583E4F00B
:10589000A3EFF07F0212959790089BE0FD75F00250
:1058A000A4240DF582E5F03402F583E4F0A3EFF0D3
:1058B000ED75F00584AFF07E0090089DEEF0A3EF4B
:1058C000F0700BFF129597EFFB7A00025A92900846
:1058D0009DE07004A3E06401701390089BE0FD7CE0
:1058E000007F01129597EFFB7A0002598B90089D7B
:1058F000E07004A3E06402703C90089BE0FD7C0033
:105900007F02129597EFFB7A00E51775F0FFA4FF71
:10591000AEF07D05127447EF75F004A42BFFEA3555
:10592000F0FE90089BE075F002A4240DF582E5F0EE
:105930003402025ABB90089DE07004A3E064037037
:105940007690089BE0FD7C00E4FF129597EFFB7AD0
:1059500000E51775F0FFA4FFAEF07D05127447EF68
:1059600075F004A42BFFEA35F0FE90089BE0FD756E
:10597000F002A42415F582E5F03400F583EEF0A3DF
:10598000EFF07C007F01129597EFFBE51775F0FFB4
:10599000A4FFAEF07D05127447EF75F004A42BFF51
:1059A000EA35F0FE90089BE075F002A42411F58220
:1059B000E5F03401025ABB90089DE07004A3E06456
:1059C00004707690089BE0FD7C007F02129597EFB3
:1059D000FB7A00E51775F0FFA4FFAEF07D051274A9
:1059E00047EF75F004A42BFFEA35F0FE90089BE02A
:1059F000FD75F002A4240DF582E5F03402F583EE86
:105A0000F0A3EFF07C007F01129597EFFBE517758F
:105A1000F0FFA4FFAEF07D05127447EF75F004A40B
:105A20002BFFEA35F0FE90089BE075F002A42411EC
:105A3000F582E5F03401025ABB90089DE07004A3A2
:105A4000E064056003025AC990089BE0FD7C007F7A
:105A500002129597EFFB7A00E51775F0FFA4FFAEF1
:105A6000F07D05127447EF75F004A42BFFEA35F0C2
:105A7000FE90089BE0FD75F002A4240DF582E5F090
:105A80003402F583EEF0A3EFF07C00E4FF1295976B
:105A9000EFFBE51775F0FFA4FFAEF07D051274472C
:105AA000EF75F004A42BFFEA35F0FE90089BE0753B
:105AB000F002A42415F582E5F03400F583EEF0A39E
:105AC000EFF02290089B1236CB22E512FD7C0025D8
:105AD000E0FBEC33FA74112BF58274013AF583E0A4
